{
  "abi": [
    {
      "anonymous": false,
      "inputs": [
        {
          "indexed": true,
          "internalType": "address",
          "name": "from",
          "type": "address"
        },
        {
          "indexed": false,
          "internalType": "uint256",
          "name": "totalAmount",
          "type": "uint256"
        }
      ],
      "name": "DepositReceived",
      "type": "event"
    },
    {
      "anonymous": false,
      "inputs": [
        {
          "indexed": true,
          "internalType": "address",
          "name": "to",
          "type": "address"
        },
        {
          "indexed": false,
          "internalType": "uint256",
          "name": "totalAmount",
          "type": "uint256"
        }
      ],
      "name": "DepositWithdrew",
      "type": "event"
    },
    {
      "anonymous": false,
      "inputs": [
        {
          "indexed": true,
          "internalType": "address",
          "name": "from",
          "type": "address"
        },
        {
          "indexed": true,
          "internalType": "address",
          "name": "to",
          "type": "address"
        },
        {
          "indexed": false,
          "internalType": "uint256",
          "name": "amount",
          "type": "uint256"
        }
      ],
      "name": "Transfer",
      "type": "event"
    },
    {
      "anonymous": false,
      "inputs": [
        {
          "indexed": true,
          "internalType": "address",
          "name": "user",
          "type": "address"
        },
        {
          "indexed": false,
          "internalType": "uint64",
          "name": "time",
          "type": "uint64"
        }
      ],
      "name": "WithdrawalRequested",
      "type": "event"
    },
    {
      "inputs": [],
      "name": "deposit",
      "outputs": [],
      "stateMutability": "payable",
      "type": "function"
    },
    {
      "inputs": [
        {
          "internalType": "address",
          "name": "",
          "type": "address"
        }
      ],
      "name": "deposits",
      "outputs": [
        {
          "internalType": "uint256",
          "name": "amount",
          "type": "uint256"
        },
        {
          "internalType": "uint64",
          "name": "withdrawalRequestTime",
          "type": "uint64"
        }
      ],
      "stateMutability": "view",
      "type": "function"
    },
    {
      "inputs": [
        {
          "internalType": "uint64",
          "name": "unlockingTime",
          "type": "uint64"
        }
      ],
      "name": "postUpgrade",
      "outputs": [],
      "stateMutability": "nonpayable",
      "type": "function"
    },
    {
      "inputs": [],
      "name": "takeControl",
      "outputs": [],
      "stateMutability": "nonpayable",
      "type": "function"
    },
    {
      "inputs": [
        {
          "internalType": "address",
          "name": "from",
          "type": "address"
        },
        {
          "internalType": "address",
          "name": "to",
          "type": "address"
        },
        {
          "internalType": "uint256",
          "name": "amount",
          "type": "uint256"
        }
      ],
      "name": "transferFrom",
      "outputs": [],
      "stateMutability": "nonpayable",
      "type": "function"
    },
    {
      "inputs": [],
      "name": "withdrawDeposit",
      "outputs": [],
      "stateMutability": "nonpayable",
      "type": "function"
    },
    {
      "inputs": [],
      "name": "withdrawRequest",
      "outputs": [],
      "stateMutability": "nonpayable",
      "type": "function"
    }
  ],
  "address": "0x18e8eC23b9d5a175e919bc6eaF0D7fccA7f63238",
  "args": [],
  "bytecode": "0x608060405234801561001057600080fd5b506109cd806100206000396000f3fe6080604052600436106100705760003560e01c80638d71059f1161004e5780638d71059f146100e45780639185873414610118578063d0e30db01461012d578063fc7e286d1461013557610070565b8063117df0881461007557806323b872dd1461008c578063380e687a146100cf575b600080fd5b34801561008157600080fd5b5061008a61018a565b005b34801561009857600080fd5b5061008a600480360360608110156100af57600080fd5b506001600160a01b038135811691602081013590911690604001356103f7565b3480156100db57600080fd5b5061008a61051c565b3480156100f057600080fd5b5061008a6004803603602081101561010757600080fd5b503567ffffffffffffffff166105f8565b34801561012457600080fd5b5061008a610691565b61008a610753565b34801561014157600080fd5b506101686004803603602081101561015857600080fd5b50356001600160a01b031661083a565b6040805192835267ffffffffffffffff90911660208301528051918290030190f35b336000908152600160208190526040909120015467ffffffffffffffff166101f9576040805162461bcd60e51b815260206004820152601e60248201527f5749544844524157414c5f524551554553545f4e4f545f535441525445440000604482015290519081900360640190fd5b600080543382526001602081905260409092209091015467ffffffffffffffff918216908216018116429091161015610279576040805162461bcd60e51b815260206004820152601860248201527f4e4f5420524541445920544f20424520554e4c4f434b45440000000000000000604482015290519081900360640190fd5b336000908152600160205260409020546102da576040805162461bcd60e51b815260206004820152600b60248201527f4e4f204445504f53495453000000000000000000000000000000000000000000604482015290519081900360640190fd5b3360009081526001602052604090205447101561033e576040805162461bcd60e51b815260206004820152601460248201527f494e53554646494349454e542042414c414e4345000000000000000000000000604482015290519081900360640190fd5b3360009081526001602052604090205461035e818063ffffffff61085d16565b3360008181526001602081905260408083209485559301805467ffffffffffffffff191690559151909183156108fc02918491818181858888f193505050501580156103ae573d6000803e3d6000fd5b503360008181526001602090815260409182902054825190815291517fded235499318398b73ce762be7da3ffefb053deed55b64874097822aa471b2349281900390910190a250565b6000546801000000000000000090046001600160a01b03163314610462576040805162461bcd60e51b815260206004820152600e60248201527f4e4f545f415554484f52495a4544000000000000000000000000000000000000604482015290519081900360640190fd5b6001600160a01b03831660009081526001602052604090205461048b908263ffffffff61085d16565b6001600160a01b0380851660009081526001602052604080822093909355908416815220546104c0908263ffffffff6108a616565b6001600160a01b0380841660008181526001602090815260409182902094909455805185815290519193928716927fddf252ad1be2c89b69c2b068fc378daa952ba7f163c4a11628f55a4df523b3ef92918290030190a3505050565b336000908152600160208190526040909120015467ffffffffffffffff161561058c576040805162461bcd60e51b815260206004820152601160248201527f414c524541445920524551554553544544000000000000000000000000000000604482015290519081900360640190fd5b33600081815260016020818152604092839020909101805467ffffffffffffffff19164267ffffffffffffffff908116919091179182905583519116815291517fca7f2190718bf9dc4ec5eb412cb9f1d6ba7fd59a195e0f4e65deee4bbb2b259d9281900390910190a2565b7fb53127684a568b3173ae13b9f8a6016e243e63b6e8ee1178d6a717850b5d6103546001600160a01b038116610657576001600160a01b037fb53127684a568b3173ae13b9f8a6016e243e63b6e8ee1178d6a717850b5d61035561066c565b336001600160a01b0382161461066c57600080fd5b506000805467ffffffffffffffff191667ffffffffffffffff92909216919091179055565b6000546801000000000000000090046001600160a01b031615806106cb57506000546801000000000000000090046001600160a01b031633145b61071c576040805162461bcd60e51b815260206004820152601260248201527f414c52454144595f434f4e54524f4c4c45440000000000000000000000000000604482015290519081900360640190fd5b600080547fffffffff0000000000000000000000000000000000000000ffffffffffffffff16336801000000000000000002179055565b6000546801000000000000000090046001600160a01b03166107bc576040805162461bcd60e51b815260206004820152600960248201527f4e4f545f52454144590000000000000000000000000000000000000000000000604482015290519081900360640190fd5b336000908152600160205260409020546107dc903463ffffffff6108a616565b33600081815260016020818152604092839020858155909101805467ffffffffffffffff191690558151938452905191927f9936746a4565f9766fa768f88f56a7487c78780ac179562773d1c75c5269537e929081900390910190a2565b6001602081905260009182526040909120805491015467ffffffffffffffff1682565b600061089f83836040518060400160405280601e81526020017f536166654d6174683a207375627472616374696f6e206f766572666c6f770000815250610900565b9392505050565b60008282018381101561089f576040805162461bcd60e51b815260206004820152601b60248201527f536166654d6174683a206164646974696f6e206f766572666c6f770000000000604482015290519081900360640190fd5b6000818484111561098f5760405162461bcd60e51b81526004018080602001828103825283818151815260200191508051906020019080838360005b8381101561095457818101518382015260200161093c565b50505050905090810190601f1680156109815780820380516001836020036101000a031916815260200191505b509250505060405180910390fd5b50505090039056fea2646970667358221220ce699bfbf53dc020cacb6ad75ad655dbd7f370a45bd6526201a89fa38918d44c64736f6c63430006050033"
}