{
  "abi": [
    {
      "anonymous": false,
      "inputs": [
        {
          "indexed": true,
          "internalType": "bytes32",
          "name": "documentId",
          "type": "bytes32"
        },
        {
          "indexed": true,
          "internalType": "address",
          "name": "bettor",
          "type": "address"
        },
        {
          "indexed": true,
          "internalType": "uint256",
          "name": "id",
          "type": "uint256"
        }
      ],
      "name": "BetSubmitted",
      "type": "event"
    },
    {
      "anonymous": false,
      "inputs": [
        {
          "indexed": true,
          "internalType": "bytes32",
          "name": "documentId",
          "type": "bytes32"
        },
        {
          "indexed": false,
          "internalType": "bool",
          "name": "accepted",
          "type": "bool"
        }
      ],
      "name": "JudgementCasted",
      "type": "event"
    },
    {
      "inputs": [
        {
          "internalType": "bytes32",
          "name": "documentId",
          "type": "bytes32"
        },
        {
          "internalType": "bool",
          "name": "accepted",
          "type": "bool"
        }
      ],
      "name": "appeal",
      "outputs": [],
      "stateMutability": "nonpayable",
      "type": "function"
    },
    {
      "inputs": [
        {
          "internalType": "bytes32",
          "name": "documentId",
          "type": "bytes32"
        },
        {
          "internalType": "bool",
          "name": "accepted",
          "type": "bool"
        }
      ],
      "name": "castJudgement",
      "outputs": [],
      "stateMutability": "nonpayable",
      "type": "function"
    },
    {
      "inputs": [
        {
          "internalType": "address",
          "name": "judge",
          "type": "address"
        },
        {
          "internalType": "contract Deposit",
          "name": "deposit",
          "type": "address"
        },
        {
          "internalType": "uint64",
          "name": "claimPeriod",
          "type": "uint64"
        },
        {
          "internalType": "uint64",
          "name": "betAmount",
          "type": "uint64"
        }
      ],
      "name": "postUpgrade",
      "outputs": [],
      "stateMutability": "nonpayable",
      "type": "function"
    },
    {
      "inputs": [
        {
          "internalType": "bytes32",
          "name": "documentId",
          "type": "bytes32"
        },
        {
          "internalType": "uint256",
          "name": "losingBetId",
          "type": "uint256"
        },
        {
          "internalType": "uint64",
          "name": "losingTimestamp",
          "type": "uint64"
        },
        {
          "internalType": "bytes",
          "name": "losingsig",
          "type": "bytes"
        },
        {
          "internalType": "uint256",
          "name": "winningBetId",
          "type": "uint256"
        },
        {
          "internalType": "uint64",
          "name": "winningTimestamp",
          "type": "uint64"
        },
        {
          "internalType": "uint256",
          "name": "parentBetId",
          "type": "uint256"
        },
        {
          "internalType": "bytes",
          "name": "winningSig",
          "type": "bytes"
        }
      ],
      "name": "recordLosingBet",
      "outputs": [],
      "stateMutability": "nonpayable",
      "type": "function"
    }
  ],
  "address": "0x7Cb21cf835D806Bda9c8F4CD3AA99705bcB544dC",
  "args": [],
  "bytecode": "0x608060405260018054600160401b600160a01b0319166801000000000000000017905534801561002e57600080fd5b50610e428061003e6000396000f3fe608060405234801561001057600080fd5b506004361061004c5760003560e01c8063838594f814610051578063ae1a220014610078578063b165693f146100c0578063cc95d570146101bc575b600080fd5b6100766004803603604081101561006757600080fd5b508035906020013515156101e1565b005b6100766004803603608081101561008e57600080fd5b506001600160a01b03813581169160208101359091169067ffffffffffffffff604082013581169160600135166101e5565b61007660048036036101008110156100d757600080fd5b81359160208101359167ffffffffffffffff604083013516919081019060808101606082013564010000000081111561010f57600080fd5b82018360208201111561012157600080fd5b8035906020019184600183028401116401000000008311171561014357600080fd5b9193909282359267ffffffffffffffff60208201351692604082013592909160808101906060013564010000000081111561017d57600080fd5b82018360208201111561018f57600080fd5b803590602001918460018302840111640100000000831117156101b157600080fd5b509092509050610366565b610076600480360360408110156101d257600080fd5b5080359060200135151561083d565b5050565b7fb53127684a568b3173ae13b9f8a6016e243e63b6e8ee1178d6a717850b5d6103546001600160a01b038116610244576001600160a01b037fb53127684a568b3173ae13b9f8a6016e243e63b6e8ee1178d6a717850b5d610355610259565b336001600160a01b0382161461025957600080fd5b600380546001600160a01b038088167fffffffffffffffffffffffff0000000000000000000000000000000000000000928316179092556002805487841692169190911790819055604080517f9185873400000000000000000000000000000000000000000000000000000000815290519190921691639185873491600480830192600092919082900301818387803b1580156102f557600080fd5b505af1158015610309573d6000803e3d6000fd5b50506001805467ffffffffffffffff191667ffffffffffffffff968716177fffffffffffffffffffffffff000000000000000000000000ffffffffffffffff16949095166801000000000000000002939093179093555050505050565b60008a81526004602052604090205467ffffffffffffffff166103d0576040805162461bcd60e51b815260206004820152601660248201527f4a554447454d454e545f444f45534e545f455849535400000000000000000000604482015290519081900360640190fd5b60008a8152602081815260408083208c845290915290205460ff161561043d576040805162461bcd60e51b815260206004820152601060248201527f414c52454144595f5355424d4954454400000000000000000000000000000000604482015290519081900360640190fd5b60016000808c815260200190815260200160002060008b815260200190815260200160002060006101000a81548160ff0219169083151502179055506000600460008c815260200190815260200160002060000160089054906101000a900460ff16905060006104e88c8c8985158e8e8e8080601f01602080910402602001604051908101604052809392919081815260200183838082843760009201919091525061097392505050565b90506104f3816109a3565b6001600160a01b03811660608c901c14610554576040805162461bcd60e51b815260206004820152601760248201527f494e56414c49445f4c4f5345525f5349474e4154555245000000000000000000604482015290519081900360640190fd5b8a816001600160a01b03168d7f6656381974bde5473803433b4fdceb8e9d6c96c212ec940ab4549269611c379c60405160405180910390a4861580156105b2575060008c8152602081815260408083208a845290915290205460ff16155b156107865760008c8152602081815260408083208a8452825280832080547fffffffffffffffffffffffffffffffffffffffffffffffffffffffffffffff001660011790558051601f870183900483028101830190915285815261063b918f918b918a9188918d91908c908c908190840183828082843760009201919091525061097392505050565b90506001600160a01b038116606089901c1461069e576040805162461bcd60e51b815260206004820152601860248201527f494e56414c49445f57494e4e45525f5349474e41545552450000000000000000604482015290519081900360640190fd5b600254600154604080517f23b872dd0000000000000000000000000000000000000000000000000000000081526001600160a01b0386811660048301528581166024830152680100000000000000009093046bffffffffffffffffffffffff166044820152905191909216916323b872dd91606480830192600092919082900301818387803b15801561073057600080fd5b505af1158015610744573d6000803e3d6000fd5b5050505087816001600160a01b03168e7f6656381974bde5473803433b4fdceb8e9d6c96c212ec940ab4549269611c379c60405160405180910390a45061082f565b600254600154604080517f23b872dd0000000000000000000000000000000000000000000000000000000081526001600160a01b038581166004830152306024830152680100000000000000009093046bffffffffffffffffffffffff166044820152905191909216916323b872dd91606480830192600092919082900301818387803b15801561081657600080fd5b505af115801561082a573d6000803e3d6000fd5b505050505b505050505050505050505050565b6003546001600160a01b0316331461085457600080fd5b60008281526004602052604090205467ffffffffffffffff16156108bf576040805162461bcd60e51b815260206004820152600f60248201527f414c52454144595f444543494445440000000000000000000000000000000000604482015290519081900360640190fd5b60408051808201825267ffffffffffffffff42811682528315156020808401828152600088815260048352869020945185549151151568010000000000000000027fffffffffffffffffffffffffffffffffffffffffffffff00ffffffffffffffff9190951667ffffffffffffffff199092169190911716929092179092558251918252915184927f538bfbdb60d92942e4ed995cf8b16cd4822c830502970b22b564fe594713a4c5928290030190a25050565b600060606109848888888888610a20565b9050610997818051906020012084610bf3565b98975050505050505050565b604080516001600160a01b0383166024808301919091528251808303909101815260449091019091526020810180517bffffffffffffffffffffffffffffffffffffffffffffffffffffffff167f2c2ecbc200000000000000000000000000000000000000000000000000000000179052610a1d90610d98565b50565b604080517f454950373132446f6d61696e28737472696e67206e616d652900000000000000815281519081900360190181207f4a756467656d656e740000000000000000000000000000000000000000000000825282519182900360090182206020808401929092528284015282518083038401815260609283019384905280519101209091806053610dba82396053019050604051809103902087878787610afe576040518060400160405280600581526020017f66616c7365000000000000000000000000000000000000000000000000000000815250610b35565b6040518060400160405280600481526020017f74727565000000000000000000000000000000000000000000000000000000008152505b8051906020012087604051602001808781526020018681526020018581526020018481526020018381526020018267ffffffffffffffff1667ffffffffffffffff16815260200196505050505050506040516020818303038152906040528051906020012060405160200180807f190100000000000000000000000000000000000000000000000000000000000081525060020183815260200182815260200192505050604051602081830303815290604052905095945050505050565b60008151604114610c4b576040805162461bcd60e51b815260206004820152601860248201527f5349474e41545552455f494e56414c49445f4c454e4754480000000000000000604482015290519081900360640190fd5b60208201516040830151606084015160001a601b811015610c6a57601b015b8060ff16601b1480610c7f57508060ff16601c145b610cd0576040805162461bcd60e51b815260206004820152601360248201527f5349474e41545552455f494e56414c49445f5600000000000000000000000000604482015290519081900360640190fd5b6040805160008152602080820180845289905260ff8416828401526060820186905260808201859052915160019260a0808401939192601f1981019281900390910190855afa158015610d27573d6000803e3d6000fd5b5050604051601f1901519450506001600160a01b038416610d8f576040805162461bcd60e51b815260206004820152601660248201527f5349474e41545552455f5a45524f5f4144445245535300000000000000000000604482015290519081900360640190fd5b50505092915050565b80516a636f6e736f6c652e6c6f67602083016000808483855afa505050505056fe426574286279746573333220646f63756d656e7449642c75696e743235362069642c75696e7432353620706172656e7449642c737472696e6720697356616c69642c75696e7436342074696d657374616d7029a26469706673582212208b88480e7d89b525007872f58fd222765288192317e5bd9cae6f62d0c376c11b64736f6c63430006050033"
}